:020000040800F2
:100000003804002001010008B9010008BB01000804
:10001000BF010008C3010008C7010008000000007C
:10002000000000000000000000000000CB010008FC
:10003000CD01000800000000CF010008D101000838
:100040001B0100081B0100081B0100081B01000820
:100050001B0100081B0100081B0100081B01000810
:100060001B0100081B0100081B0100081B01000800
:100070001B0100081B0100081B0100081B010008F0
:100080001B0100081B0100081B0100081B010008E0
:100090001B0100081B0100081B0100081B010008D0
:1000A0001B0100081B0100081B0100081B010008C0
:1000B0001B0100081B0100081B0100081B010008B0
:1000C0001B0100081B0100081B0100081B010008A0
:1000D0001B0100081B0100081B0100081B01000890
:1000E0001B0100081B0100081B010008DFF80CD0F1
:1000F00001F01EFA004800472501000838040020DE
:100100000648804706480047FEE7FEE7FEE7FEE7B1
:10011000FEE7FEE7FEE7FEE7FEE7FEE7C90D0008A3
:10012000ED000008002400F0CFFE00F019FF01F000
:100130005FF800F075FF17A001F02CFA002000F026
:1001400088FF25E000F0CCFF0446642000F0F1FEBB
:1001500000F0C6FFA0421AD1CCB1642000F0E9FE45
:1001600000F0BEFFA04212D18CB10E4801880EA053
:1001700001F010FA611E01228A4090B200F069FF7E
:100180004FF4FA7000F0D5FE002000F062FF00246A
:10019000D8E700000D0A20746573742075617274CD
:1001A000200D0A002E0000200D0A206B65793D25E8
:1001B0003034780D0A000000704700BFFEE700BF32
:1001C000FEE700BFFEE700BFFEE7704770477047DD
:1001D0000448008820B103480088401E0149088077
:1001E000704700000000002010B50446CA48844251
:1001F00008D10121042000F027FB0021042000F099
:1002000023FB46E0C548844208D10121082000F0C4
:100210001BFB0021082000F017FB3AE0C048844295
:1002200008D10121102000F00FFB0021102000F068
:100230000BFB2EE0BB48844208D10121202000F0B6
:1002400003FB0021202000F0FFFA22E0B6488442A0
:1002500008D10121402000F0F7FA0021402000F0F1
:10026000F3FA16E0B148844208D10121802000F061
:10027000EBFA0021802000F0E7FA0AE0AC48844263
:1002800007D10121801500F0DFFA0021A01500F050
:10029000DBFA10BD10B50121084600F0D5FA0021A7
:1002A000012000F0D1FA10BD2DE9F04102460025F1
:1002B0000026002000230024002791F803C00CF042
:1002C0000F0591F803C01CF0100F03D091F802C085
:1002D0004CEA050591F800C0BCF1000F31D014685C
:1002E00000202BE04FF0010C0CFA00F3B1F800C035
:1002F0000CEA03069E4220D183004FF00F0C0CFA4B
:1003000003F7BC4305FA03FC4CEA040491F803C06C
:10031000BCF1280F06D14FF0010C0CFA00FCC2F81A
:1003200014C00AE091F803C0BCF1480F05D14FF0AA
:10033000010C0CFA00FCC2F810C0401C0828D1D3F4
:100340001460B1F800C0BCF1FF0F34DD5468002028
:100350002EE000F1080C4FF0010808FA0CF3B1F898
:1003600000C00CEA03069E4221D183004FF00F0C1F
:100370000CFA03F7BC4305FA03FC4CEA040491F8B9
:1003800003C0BCF1280F05D100F1080C08FA0CF8E5
:10039000C2F8148091F803C0BCF1480F07D100F1F6
:1003A000080C4FF0010808FA0CF8C2F81080401C45
:1003B0000828CED35460BDE8F0814FF6FF7101806C
:1003C000022181700421C1707047024600209368A9
:1003D0000B4201D0012000E00020704701468868F0
:1003E00080B2704702460020D3680B4201D0012042
:1003F00000E0002070470146C86880B27047016184
:100400007047416170470AB1016100E04161704786
:10041000C16070474FF480320A438261816182611A
:1004200082698269704702460020424B18684FF685
:100430008073184040EA021008433E4B1860704732
:100440003D49C8617047F0B50A46002300240021E9
:10045000002500F00046B6F1004F02D1354EF1699B
:1004600001E0344E7168C0F3034583B200F44016D6
:10047000B6F5401F08D121F070612E4E766826F047
:1004800070662C4F7E6012E000F48016B6F5801F77
:1004900006D1032606FA05F4A14341F0706106E097
:1004A000460D360103FA06F6B14341F0706122B100
:1004B000460D360103FA06F6314300F00046B6F168
:1004C000004F02D11B4EF16101E01A4E7160F0BD88
:1004D00030B500228B071C0F0F2303FA04F2154BD3
:1004E00008338C1053F824309343124C08348D1089
:1004F00044F8253023468C1053F824308C07240F01
:1005000000FA04F423430B4C08348D1044F82530D2
:1005100030BD0A490860704700080140000C0140E6
:10052000001001400014014000180140001C01406F
:10053000002001400000014000002042DC00204279
:10054000DD48006840F00100DB490860084640686B
:10055000DA490840D849486008460068D849084048
:10056000D54908600846006820F4802008600846E5
:10057000406820F4FE0048604FF41F008860704718
:10058000CD49096821F48031CB4A116011460968D0
:1005900021F480211160B0F5803F03D0B0F5802FA9
:1005A0000ED106E0C449096841F48031C24A1160A5
:1005B00007E0C149096841F4A021BF4A116000E089
:1005C00000BF00BF704710B5014600220023002085
:1005D0004A11012A02D1B84C236806E0022A02D14E
:1005E000B54C236A01E0B44C636A01F01F02012498
:1005F00094401C4201D0012000E0002010BD38B51D
:10060000002000900024002500BF3120FFF7DBFF11
:1006100005460098401C00900098B0F5A06F01D0EE
:10062000002DF2D03120FFF7CEFF08B1012400E009
:100630000024204638BD014600209F4A106820F063
:10064000F80040EAC100106070479E49086070479A
:1006500002460020984B586820F47C1042EA0103BF
:100660001843954B58607047964908667047014695
:100670000020914A506820F0030008435060704702
:100680008D48406800F00C007047014600208A4AFF
:10069000506820F0F0000843506070470146002089
:1006A000854A506820F4E060084350607047014676
:1006B0000020814A506820F4605040EAC100506038
:1006C000704729B17C4A527A02437B4B5A7204E04C
:1006D000794A527A8243784B5A7270477A49086055
:1006E000704701460020744A506820F44040084397
:1006F000506070470021754A11706F4A82F82010CF
:10070000012802D0042808D103E001216F4A1170AA
:1007100004E005216D4A117000E000BF00BF704782
:100720006B49086070476449096A0143624A116273
:100730007047674944390860704730B5002100228E
:10074000002400235C4D6D6805F00C0121B10429E3
:1007500005D0082923D105E05E4D056022E05D4DFE
:1007600005601FE0544D6D6805F47012524D6D68C0
:1007700005F48034022505EB92421CB9564D5543D1
:1007800005600BE04C4D6D6815F4003F03D0524DF1
:100790005543056002E04F4D5543056002E04D4D65
:1007A000056000BF00BF444D6D6805F0F001090908
:1007B0004A4D6B5C0568DD4045603F4D6D6805F452
:1007C000E061090A454D6B5C4568DD4085603A4D46
:1007D0006D6805F46051C90A404D6B5C4568DD40A9
:1007E000C560354D6D6805F44041890B3C4D6B5C2F
:1007F000C568B5FBF3F5056130BD29B12E4A5269D4
:1008000002432D4B5A6104E02B4A526982432A4B22
:100810005A61704729B1284A92690243264B9A616E
:1008200004E0254A92698243234B9A61704729B1BB
:10083000214AD2690243204BDA6104E01E4AD269A0
:1008400082431D4BDA61704729B11B4AD2680243CB
:10085000194BDA6004E0184AD2688243164BDA601A
:10086000704729B1144A12690243134B1A6104E01C
:10087000114A12698243104B1A617047144940397A
:10088000086070470F49C86470470B49C8717047CA
:100890000948406A40F08070074948627047014645
:1008A0000020054A92680A4201D0012000E00020A1
:1008B0007047014988727047001002400000FFF83D
:1008C000FFFFF6FE00004242D800424220100240E4
:1008D0008004424200127A0000093D00020000201C
:1008E0001200002010B50446FB48844209D10121C2
:1008F0008803FFF7A9FF00214FF48040FFF7A4FF12
:1009000032E0F648844209D101214804FFF7A9FFEB
:1009100000214FF40030FFF7A4FF25E0F0488442A7
:1009200009D101218804FFF79CFF00214FF48020AA
:10093000FFF797FF18E0EB48844209D10121C80472
:10094000FFF78FFF00214FF40020FFF78AFF0BE035
:10095000E548844208D101210805FFF782FF002104
:100960004FF48010FFF77DFF10BD2DE9F04786B0F2
:1009700005460E460024A24600BFA1460027B089C6
:1009800000B100BF2F462C8A4CF6FF700440F0885F
:1009900004432C82AC894EF6F3100440B0883189B0
:1009A0000843718908430443AC81AC8A4FF6FF4089
:1009B0000440B0890443AC8201A8FFF7BEFEC648DC
:1009C000874202D1DDF810A001E0DDF80CA0A88973
:1009D00010F4004F08D00AEBCA0000EB0A1031688F
:1009E0004900B0FBF1F807E00AEBCA0000EB0A107F
:1009F00031688900B0FBF1F86420B8FBF0F0040125
:100A00002009642101FB1089A88910F4004F08D047
:100A1000322000EBC900B0FBF1F000F00700044306
:100A200008E0322000EB09106421B0FBF1F000F087
:100A30000F0004432C8106B0BDE8F0874FF4165137
:100A4000016000218180C18001810C214181002150
:100A50008181704710B502460020108A4FF2FF03D3
:100A600018400B884C8823438C882343CC8823432D
:100A70001843108210BD0021018041808180C18017
:100A8000704721B1828942F40052828104E0828958
:100A90004DF6FF731A4082817047F0B5034600247B
:100AA000002600250020A1F510676A3F00D100BF95
:100AB0001846C1F3421401F01F06012707FA06F594
:100AC000012C01D10C3004E0022C01D1103000E0E7
:100AD00014301AB107682F43076002E00768AF437C
:100AE0000760F0BD1AB1838A0B43838202E0838AD8
:100AF0008B4383827047028A4FF6F0731A4002825A
:100B0000028A0A430282704782894FF2FF731A40B9
:100B1000828182890A438281704721B1828942F0B1
:100B20000202828104E082894FF6FD731A408281BD
:100B30007047028A4FF6DF731A400282028A0A4324
:100B40000282704721B1028A42F48042028204E0AC
:100B5000028A4BF6FF731A4002827047C1F3080203
:100B60008280704701468888C0F3080070478189F9
:100B700041F0010181817047028BD2B20283028B66
:100B800042EA012202837047028B02F47F42028311
:100B9000028B0A430283704721B1828A42F020020D
:100BA000828204E0828A4FF6DF731A4082827047A5
:100BB00021B1828A42F01002828204E0828A4FF6DA
:100BC000EF731A408282704721B1828A42F0080294
:100BD000828204E0828A4FF6F7731A40828270475D
:100BE00021B1828942F40042828103E08289C2F30A
:100BF0000E028281704721B1828A42F400628282B1
:100C000004E0828A4FF2FF731A4082827047828A20
:100C10004FF6FB731A408282828A0A4382827047AF
:100C200021B1828A42F00202828204E0828A4FF677
:100C3000FD731A408282704702460020B1F5007FA2
:100C400000D100BF13880B4201D0012000E000203A
:100C5000704701F40072B2F5007F00D100BFCA43B3
:100C60000280704770B50246002400230025002052
:100C7000A1F510666A3E00D100BFC1F3421501F034
:100C80001F03012606FA03F3012D02D19689334092
:100C900006E0022D02D1168A334001E0968A3340E5
:100CA0000C12012606FA04F41688344013B10CB174
:100CB000012000E0002070BD10B500220023A1F546
:100CC00010646A3C00D100BF0A1201249440A3B210
:100CD000DC43048010BD00000038014000440040A7
:100CE00000480040004C0040005000400CB500207F
:100CF000019000906B48006840F4803069490860BA
:100D000000BF6848006800F4003000900198401C63
:100D10000190009818B90198B0F5A06FF1D1614821
:100D2000006810F4003F02D00120009001E0002094
:100D300000900098012842D15B48006840F0100004
:100D4000594908600846006820F00300086008461A
:100D5000006840F00200086052484068514948600D
:100D60000846406848600846406840F48060486033
:100D70000846406820F47C1048600846406840F40B
:100D8000E81048600846006840F08070086000BFC6
:100D90004448006810F0007FFAD04248406820F0D4
:100DA0000300404948600846406840F0020048603F
:100DB00000BF3C48406800F00C000828F9D10CBD89
:100DC00010B5FFF793FF10BD10B53648006840F02E
:100DD00001003449086008464068344908403149F8
:100DE000486008460068324908402E4908600846B5
:100DF000006820F4802008600846406820F4FE0067
:100E000048604FF41F008860FFF7DAFF4FF0006082
:100E10002849086010BD10B5002100200022214B98
:100E20005B6803F00C0121B1042906D0082928D100
:100E300007E0214B214C236027E01F4B1F4C236010
:100E400023E0184B5B6803F47010164B5B6803F4E7
:100E50008032022303EB904022B9194B4343174CD5
:100E600023600DE00F4B5B6813F4003F04D0144B7C
:100E70004343124C236003E00F4B43430F4C23606A
:100E800003E00D4B0D4C236000BF00BF054B5B68BA
:100E9000C3F303130B4CE15C084B1B68CB40074CBE
:100EA000236010BD00100240002002400000FFF847
:100EB000FFFFF6FE08ED00E000127A0018000020A7
:100EC00000093D001C00002030B500BF1F4800682D
:100ED0001F4AB0FBF2F1B1F1807F01D301201DE088
:100EE00021F07F40401E4FF0E022506150170F224A
:100EF000002807DA13071D0E164B00F00F04241FFD
:100F00001D5503E013071C0E134B1C5400BF00209B
:100F10004FF0E02290610720106100200028D5D119
:100F200030BD0E49088000BF0C4909880029FBD15B
:100F3000704700B5024603E04FF47A70FFF7F1FF07
:100F40001000A2F101018AB2F6D100BD1800002004
:100F500040420F0018ED00E000E400E00000002037
:100F600000B585B0012144F20400FFF753FC4FF4B3
:100F70000070ADF8100018208DF8130003208DF8D4
:100F8000120004A92448FFF78FF94FF48060ADF8F0
:100F9000100004208DF8130003208DF8120004A91E
:100FA0001D48FFF781F94FF4165000900020ADF86E
:100FB0000400ADF80600ADF80800ADF80C000C20F8
:100FC000ADF80A0069461548FFF7CFFC40211348E9
:100FD000FFF73FFE012240F225511048FFF75DFD6B
:100FE000012240F227710D48FFF757FD01210B4800
:100FF000FFF747FD05B000BD70B504460D46E1B2F0
:101000000648FFF7ABFD00BF40210448FFF714FE80
:101010000028F9D0204670BD00080140003801408A
:1010200008B501210820FFF7F5FB4FF4E040ADF8CB
:10103000000010208DF8030003208DF8020069469F
:101040002248FFF731F94FF4E0412048FFF7D7F984
:1010500008BD70B5054600201D4908601D49C1F84E
:10106000B401044619E005FA04F010F4004F03D06F
:1010700001201949086002E00020174908604FF07C
:101080000000134908604FF00A00FFF74AFF0120F3
:101090001049C1F8B401601CC4B2102CE3DB00207D
:1010A0000E4908604FF00A00FFF73BFF0120094995
:1010B000C1F8B0010A20FFF734FF0020044908609E
:1010C000064908600449086070BD0000000C01403A
:1010D000B481214200802142B8812142B081214265
:1010E00010B500F0A7F8AF2000F088F900F00EF975
:1010F000002000F0B3F93D49088000F007F9002016
:1011000000F0ACF93949097800EB01203749088033
:1011100000F020F900F0B0F834480088B0F5004F36
:1011200001D10A2010BD31480088802801D101205A
:10113000F8E72E480088B0F5804F01D10B20F1E789
:101140002A480088402801D10220EBE72748008880
:10115000B0F5005F01D10C20E4E724480088202886
:1011600001D10320DEE721480088B0F5805F01D17E
:101170000920D7E71D480088102801D10420D1E7B5
:101180001A480088B0F5006F01D10D20CAE7174852
:101190000088082801D10520C4E714480088B0F56C
:1011A000806F01D10E20BDE710480088042801D1CE
:1011B0000620B7E70D480088B0F5007F01D10F2069
:1011C000B0E70A480088022801D10820AAE70748AA
:1011D0000088B0F5807F01D11020A3E70348008884
:1011E000012801D107209DE700209BE72E00002069
:1011F00008B501214820FFF70DFBC020ADF8000025
:1012000010208DF8030003208DF802006946A948DC
:10121000FFF74AF8C021A748FFF7F1F84FF4A040C4
:10122000ADF8000048208DF803006946A248FFF79A
:101230003BF808BD10B59F48006820F070409D49FC
:1012400008600846006840F04050086001209B4953
:1012500008609B49C1F898014FF00400FFF761FE58
:101260000020964908604FF00400FFF75AFE002066
:101270009349C1F8980110BD10B58E48006820F060
:1012800070408C4908600846006840F04050086093
:1012900000208C4908608A49C1F89C014FF0040085
:1012A000FFF73FFE0120874908608549C1F89C018E
:1012B0004FF00400FFF735FE10BD10B500247D4847
:1012C000006820F070407B4908600846006840F0E4
:1012D00000400860012079490860FFF722FE0120E4
:1012E0007749C1F89801FFF71CFE07E0601CC4B203
:1012F000FA2C03DDFFF7C0FF012010BD7248006823
:101300000028F3D16F49086000BFF6E710B5002050
:101310006C4908606748006820F0704065490860C3
:101320000846006840F0405008604FF000006449F3
:10133000C1F89C014FF00200FFF7F3FD0120614965
:1013400008604FF00200FFF7ECFD00205C49C1F897
:10135000980110BD10B500205A4908605548006832
:1013600020F07040534908600846006840F0405043
:1013700008604FF001005249C1F89C014FF0020093
:10138000FFF7CFFD01204F4908604FF00200FFF743
:10139000C8FD00204A49C1F8980110BD70B5044647
:1013A0004448006820F070404249086008460068E0
:1013B00040F04050086000204249086005461AE0AD
:1013C000E0093E4908604FEA44604FEA10644FF07C
:1013D0000200FFF7A6FD01203949C1F8980102205B
:1013E000FFF79FFD0020374908604FF00200FFF72C
:1013F00098FD681CC5B2082DE2DB70BD70B50446CF
:101400002C48006820F070402A49086008460068AF
:1014100040F04050086000202A49086005461AE064
:10142000E009264908604FEA44604FEA10644FF033
:101430000200FFF776FD01202149C1F89801022042
:10144000FFF76FFD00201F4908604FF00200FFF713
:1014500068FD681CC5B2082DE2DB70BD70B506469C
:1014600000241448006820F07040124908600846C3
:10147000006840F000400860002516E00020114997
:1014800008604FF00200FFF74CFD01200C49C1F845
:1014900098016006040E0C48006808B1601CC4B2D4
:1014A0000120FFF73EFD681CC5B2082DE6DB204693
:1014B00070BD0000000C0140001801409C812142D9
:1014C00000802142988121421C8121422DE9F05F58
:1014D0000546002092469B468846064681464024A3
:1014E0001BE0284641464746224600F042F8534654
:1014F0005A46C01A914110D311461846224600F0B0
:1015000029F82D1A67EB01084F46224601200021D9
:1015100000F020F817EB00094E41201EA4F1010451
:10152000DFDC484631462A464346BDE8F09F0000CE
:10153000064C074D06E0E06840F0010394E8070020
:1015400098471034AC42F6D3FEF7D4FD341A0008A5
:10155000541A0008202A04DB203A00FA02F1002085
:1015600070479140C2F1200320FA03F319439040E1
:101570007047202A04DB203A21FA02F0002170474C
:1015800021FA02F3D040C2F12002914008431946EB
:10159000704700000FB4054B10B503A9044A029828
:1015A00000F018F810BC5DF814FB0000F90F0008FB
:1015B0003000002002E008C8121F08C1002AFAD13A
:1015C00070477047002001E001C1121F002AFBD1C3
:1015D000704700002DE9FF4F8DB00F4605460026ED
:1015E000DEE1252874D100246D1CF149A246A146F4
:1015F00001222B78203B02FA03F0084202D0044378
:101600006D1CF6E728782A2810D06FF02F02287872
:10161000A0F13001092915D80AEB8A0102EB41013A
:1016200044F0020400EB010A6D1CF0E757F804AB2C
:10163000BAF1000F03DA44F40054CAF1000A44F08E
:1016400002046D1C28782E2817D115F8010F44F0DC
:1016500004042A280ED06FF02F022878A0F1300160
:1016600009290AD809EB890102EB410100EB0109C4
:101670006D1CF2E757F8049B6D1C28786C280FD07E
:1016800006DC4C2817D068280DD06A2814D104E055
:10169000742810D07A280FD10DE044F400140AE029
:1016A00044F4801401E044F440146978814202D18A
:1016B0006D1C04F580146D1C2A786E2A20D00DDC78
:1016C000632A33D005DC002A6FD0582A12D1A2E059
:1016D00011E0642A6AD0692A0CD167E0732A2FD0FE
:1016E00004DC6F2A6FD0702A04D199E0752A6BD080
:1016F000782A6AD01046DDE90F129047761C4EE139
:10170000C4F30250022806D003280AD0042801CFCF
:101710000AD0066043E101CF4FEAE671C0E90061FB
:101720003DE101CF06803AE1067038E117F8040B7D
:101730008DF8000000208DF80100EB46012003E049
:1017400057F804BB4FF0FF3061074FF0000102D49F
:101750000DE008F10101884649450FDA8045F8DBC4
:101760001BF808100029F4D108E008F101018846AF
:101770008142FADB1BF808100029F6D1DDE90F23BE
:10178000AAEB08008146214600F03BF9304400EB0B
:10179000080604E0DDE90F121BF8010B9047B8F1D1
:1017A0000108F7D221464846F4E0FDE00A21C4F3DF
:1017B00002534FF0000B0891022B07D001CFC11745
:1017C000032B09D00AE034E023E024E0FF1D27F0DA
:1017D0000707F7E8020105E000B2C117042B01D1A9
:1017E00040B2C117002907DA4FF0000CD0EB0C0013
:1017F0006CEB01012D2302E0230504D52B238DF88A
:101800002430012303E0E30701D02023F7E79846C3
:1018100050E00A210EE010204FF0000B08900CE081
:1018200010214FF0000B44F004044FF00809089118
:1018300003E008214FF0000B0891C4F30253022B80
:1018400004D001CF0021032B06D006E0FF1D27F0B6
:101850000707F7E8020103E080B2042B00D1C0B211
:101860004FF00008230725D5702A2AD0DDF820C0C4
:101870008CF0100C5CEA0B0C09D150EA010306D085
:1018800030238DF824308DF8252002239846DDF88A
:1018900020C08CF0080C5CEA0B0C0BD150EA010361
:1018A00001D1630706D530238DF824304FF00108AD
:1018B000A9F10109582A09D03EA20B9208AA0A925E
:1018C00011E040238DF824300123DFE73EA2F4E746
:1018D0005B46089AFFF7FAFD0B9B9B5C0A9AA2F104
:1018E00001020A92137050EA0102F1D10A98ADEB9D
:1018F000000000F1200B600702D524F4803401E0E1
:101900004FF00109D94502DDA9EB0B0000E00020F2
:1019100000EB0B0141440890AAEB010AE00306D456
:10192000DDE90F232146504600F06BF80644002005
:1019300008E009A911F80900DDE90F129047761CAB
:1019400009F1010081464045F3DBE0030CD5DDE9F8
:101950000F232146504600F054F8064404E0DDE928
:101960000F1230209047761C0899481E08900029D5
:10197000F5DC08E00A980A990078491C0A91DDE92B
:101980000F129047761CBBF10001ABF1010BF1DCAB
:1019900021465046DDE90F2300F020F806446D1C77
:1019A000287800287FF41DAE11B03046BDE8F08FD6
:1019B0000928010030313233343536373839616225
:1019C00063646566000000003031323334353637E9
:1019D0003839414243444546000000002DE9F041BA
:1019E000044600251E461746880405D406E03946FD
:1019F0002020B04705F10105641EF8D52846BDE852
:101A0000F0812DE9F041044600251E469046C803AA
:101A100001D5302700E02027880405D506E041469F
:101A20003846B04705F10105641EF8D52846BDE8E3
:101A3000F0810000541A000800000020340000006B
:101A4000B4150008881A00083400002004040000BF
:101A5000C415000800000000000001020304010298
:101A600003040607080902040608000000A24A044D
:101A7000000000000000000001020304060708093E
:081A800000000000000000005E
:04000005080000ED02
:00000001FF
