:020000040800F2
:1000000060070020F90A00085D0300085F0300088C
:1000100063030008670300086B030008000000008A
:100020000000000000000000000000006F03000856
:100030007103000800000000730300087503000846
:10004000130B0008130B0008130B0008130B000818
:10005000130B0008130B0008130B0008130B000808
:10006000130B0008130B0008130B0008130B0008F8
:10007000130B0008130B0008130B0008130B0008E8
:10008000130B0008130B0008130B0008130B0008D8
:10009000130B0008130B0008130B0008130B0008C8
:1000A000130B0008130B0008130B0008130B0008B8
:1000B000130B0008130B0008130B0008130B0008A8
:1000C000130B0008130B0008130B0008130B000898
:1000D000130B00086F0A0008130B0008130B00082D
:1000E000130B0008130B0008130B0008130B000878
:1000F000130B0008130B0008130B0008130B000868
:10010000130B0008130B0008130B0008130B000857
:10011000130B0008130B0008130B0008130B000847
:10012000130B0008130B0008130B0008130B000837
:1001300000F002F800F03FF80AA090E8000C8244BA
:100140008344AAF10107DA4501D100F034F8AFF297
:10015000090EBAE80F0013F0010F18BFFB1A43F0A5
:10016000010318477019000090190000103A24BFCD
:1001700078C878C1FAD8520724BF30C830C144BF0C
:1001800004680C607047000000230024002500264E
:10019000103A28BF78C1FBD8520728BF30C148BFEA
:1001A0000B607047642901F0EF82002070471FB593
:1001B0001FBD10B510BD01F04BFC1146FFF7F7FF56
:1001C00000F094F801F069FC03B4FFF7F2FF03BC00
:1001D00000F0F2FB08B50121082001F037F84FF4D8
:1001E000E040ADF8000010208DF8030003208DF8EA
:1001F00002006946524800F06DFD4FF4E04150485E
:1002000000F015FE08BD70B5054600204D49086098
:100210004D49C1F8B401002419E005FA04F000F4D6
:10022000004020B101204749091D086003E000207B
:100230004449091D08600020424908600A2000F076
:100240006AFB01204049C1F8B401601CC4B2102C03
:10025000E3DB00203B49091F08600A2000F05BFB3C
:1002600001203949C1F8B0010A2000F054FB0020F8
:1002700034490860091F08603249091D086070BDD3
:1002800070B5044600251CE000202E49086004F0EB
:100290008000802803D10120091D086003E00020B0
:1002A0002849091D08600120264908606006040EDF
:1002B000032000F030FB00202349C1F8B401681C82
:1002C000C5B2082DE0DB00201E49091F086003208D
:1002D00000F021FB01201C49C1F8B001032000F00F
:1002E0001AFB00201749091F086070BD00BF0024D9
:1002F00000BF00F0F7FA4FF4A06000F01DFC4FF4CF
:10030000E13000F068FBFFF765FF00F087F94FF47C
:10031000FA7000F024FB4FF4FA7000F020FB0DE0BF
:1003200000F01AF9C4B24CB1611E01228A4090B2A9
:10033000FFF769FF214605A001F0F2F9F0E70000A0
:10034000000C0140B481214200802142B0B4BCFCC9
:1003500025303264B0B4CFC2200D0A00704700BF10
:10036000FEE700BFFEE700BFFEE700BFFEE7704705
:1003700070477047704700000CB500200190009056
:100380006C48006840F480306A49086000BF6948E2
:10039000006800F4003000900198401C0190009823
:1003A00018B90198B0F5A06FF1D16248006800F467
:1003B000003010B10120009001E000200090009872
:1003C000012843D15C48006840F010005A49086099
:1003D0000846006820F0030008600846006840F006
:1003E0000200086053484068524948600846406827
:1003F00048600846406840F48060486008464068AD
:1004000020F47C1048600846406840F4E8104860DA
:100410000846006840F08070086000BF45480068EA
:1004200000F000700028F9D04248406820F0030036
:10043000404948600846406840F00200486000BFFC
:100440003C48406800F00C000828F9D10CBD10B5FC
:10045000FFF792FF10BD10B53648006840F001006C
:1004600034490860084640683449084031494860CA
:1004700008460068324908402E490860084600686E
:1004800020F4802008600846406820F4FE004860A0
:100490004FF41F008860FFF7DAFF4FF00060294932
:1004A000086010BD10B5002100200022214B5B68C0
:1004B00003F00C0121B1042906D0082928D107E056
:1004C000214B224C236027E01F4B204C236023E06C
:1004D000184B5B6803F47010164B5B6803F48032B2
:1004E000022303EB904022B9194B4343174C23607E
:1004F0000DE0104B5B6803F4003323B1144B43430E
:10050000124C236003E0104B4343104C236003E084
:100510000D4B0E4C236000BF00BF064B5B68C3F35E
:1005200003130C4CE15C094B1B68CB40074C236068
:1005300010BD000000100240002002400000FFF843
:10054000FFFFF6FE08ED00E000127A000000002038
:1005500000093D000400002010B500F081F8AF2034
:1005600000F05EF900F0E8F8002000F087F904469A
:1005700000F0E2F8002000F081F900EB042084B2E2
:1005800000F0FDF800F08CF8B4F5004F01D1012027
:1005900010BD802C01D10220FAE7B4F5804F01D1C3
:1005A0000320F5E7402C01D10420F1E7B4F5005F0A
:1005B00001D10520ECE7202C01D10620E8E7B4F5B5
:1005C000805F01D10720E3E7102C01D10820DFE78D
:1005D000B4F5006F01D10920DAE7082C01D10A2017
:1005E000D6E7B4F5806F01D10B20D1E7042C01D1FF
:1005F0000C20CDE7B4F5007F01D10D20C8E7022C17
:1006000001D10E20C4E7B4F5807F01D10F20BFE7F0
:10061000012C01D11020BBE70020B9E708B501216A
:10062000482000F013FEC020ADF8000010208DF827
:10063000030003208DF802006946A64800F04AFB3B
:10064000C021A44800F0F3FB4FF4A040ADF8000037
:1006500048208DF8030069469F4800F03BFB08BD29
:1006600010B59C48006820F070409A490860084620
:10067000006840F04050086001209849086098499F
:10068000C1F89801042000F046F900209349086061
:10069000042000F040F900209149C1F8980110BDF4
:1006A00010B58C48006820F070408A490860084600
:1006B000006840F04050086000208849091F086029
:1006C0008749C1F89C01042000F025F901208349E5
:1006D000091F08608249C1F89C01042000F01BF941
:1006E00010BD10B500247B48006820F070407949A7
:1006F00008600846006840F0004008600120774923
:10070000086000F008F901207549C1F8980100F06F
:1007100002F907E0601CC4B2FA2C03DDFFF7C0FF4A
:10072000012010BD6D48803800680028F2D16B4967
:10073000091F086000BFF4E710B500206749091FD2
:1007400008606448006820F070406249086008460C
:10075000006840F04050086000206149C1F89C01E9
:10076000022000F0D8F801205C49091F086002202F
:1007700000F0D1F800205A49C1F8980110BD10B519
:1007800000205649091F08605248006820F0704058
:10079000504908600846006840F040500860012059
:1007A0004F49C1F89C01022000F0B5F801204B49E7
:1007B000091F0860022000F0AEF800204849C1F887
:1007C000980110BD70B504464248006820F07040A2
:1007D000404908600846006840F04050086000202A
:1007E0003E49091F0860002517E0E0093B49086001
:1007F0006006040E022000F08EF801203849C1F88E
:100800009801022000F087F800203449091F086091
:10081000022000F080F8681CC5B2082DE5DB70BD31
:1008200070B504462B48006820F0704029490860E4
:100830000846006840F04050086000202749091F22
:100840000860002517E0E009244908606006040EEE
:10085000022000F060F801202149C1F8980102202F
:1008600000F059F800201D49091F0860022000F01F
:1008700052F8681CC5B2082DE5DB70BD70B50646A0
:1008800000241448006820F07040124908600846AF
:10089000006840F000400860002517E000200F4984
:1008A000091F0860022000F036F801200C49C1F849
:1008B00098016006040E09488038006808B1601C81
:1008C000C4B2012000F027F8681CC5B2082DE5DB92
:1008D000204670BD000C0140001801409C8121425F
:1008E0000080214210B56FF0040000F074F92E482A
:1008F00000682E49B0FBF1F02D49087008460078D9
:1009000000EB4001C1EBC0104FF6FF7101EAC000DF
:100910002849088010BD0146254A12784A434FF005
:10092000E0235A6100229A611A46126942F00102DC
:100930001A6100BF4FF0E022106900F001021AB105
:1009400000F48032002AF5D04FF0E022126922F044
:1009500001024FF0E0231A6100229A6170470146BC
:10096000144A12884A434FF0E0235A6100229A61E8
:100970001A46126942F001021A6100BF4FF0E022EC
:10098000106900F001021AB100F48032002AF5D09B
:100990004FF0E022126922F001024FF0E0231A61C9
:1009A00000229A61704700000000002000127A00C7
:1009B0001400002016000020014600BF704700BF51
:1009C000494A128802F04002002AF9D0C2B2464BCE
:1009D0001B1D1A80704710B586B00446012144F2F1
:1009E000040000F033FC4FF40070ADF81400032055
:1009F0008DF8160018208DF8170005A93B4800F067
:100A000069F94FF48060ADF8140004208DF81700E8
:100A100005A9364800F05EF925208DF80000032076
:100A20008DF801008DF8020001208DF80300684662
:100A300000F087F801940020ADF80800ADF80A0036
:100A4000ADF80C00ADF810000C20ADF80E0001A9B7
:100A5000254800F0A2FC012240F22551224800F076
:100A600034FD0121204800F024FD06B010BD10B572
:100A700040F225511C4800F00DFE10B31A4800F05A
:100A800089FDC4B21A48008800F40040C8B918486B
:100A9000008800F4804060B10A2C03D00020144983
:100AA000088020E01248008840F400401049088087
:100AB00019E00D2C06D10E48008840F480400C4906
:100AC000088010E00A480088C0F30D0009490C5462
:100AD00007480088401C0649088008460088C72847
:100AE00001DD0020088010BD0038014000080140F1
:100AF0001C000020340000200948804709480047B6
:100B0000FEE7FEE7FEE7FEE7FEE7FEE7FEE7FEE7BD
:100B1000FEE7FEE704480549054A064B704700001A
:100B20005704000831010008600100206007002020
:100B3000600300206003002031490143314A116005
:100B4000704770B5002100230F22C47804B32D4CE8
:100B5000246804F4E064C4F5E064210AC1F10403EC
:100B6000CA40447804FA03F184781440214309010F
:100B7000254C0678A155047804F01F050124AC40EB
:100B800005786D11AD0005F1E025C5F8004109E0DB
:100B9000047804F01F050124AC401C4D0678761142
:100BA00045F8264070BD1A4A0A400243154B1B1FE8
:100BB0001A60704739B1134A121D12680243114B73
:100BC0001B1D1A6006E00F4A121D126882430D4B6E
:100BD0001B1D1A607047042808D14FF0E0210969F5
:100BE00041F004014FF0E022116107E04FF0E021F5
:100BF000096921F004014FF0E02211617047000003
:100C00000000FA050CED00E000E400E080E100E007
:100C100080FFFF1F10B50446CC48844208D1012153
:100C2000042000F02DFB0021042000F029FB46E009
:100C3000C748844208D10121082000F021FB00218F
:100C4000082000F01DFB3AE0C248844208D101218F
:100C5000102000F015FB0021102000F011FB2EE009
:100C6000BD48844208D10121202000F009FB002169
:100C7000202000F005FB22E0B848844208D1012181
:100C8000402000F0FDFA0021402000F0F9FA16E0C3
:100C9000B348844208D10121802000F0F1FA0021FC
:100CA000802000F0EDFA0AE0AE48844207D101212D
:100CB000801500F0E5FA0021A01500F0E1FA10BD62
:100CC00010B50121084600F0DBFA0021012000F0F8
:100CD000D7FA10BD2DE9F04102460025002600207C
:100CE00000230024002791F803C00CF00F0591F8B1
:100CF00003C00CF0100CBCF1000F03D091F802C03F
:100D00004CEA050591F800C0BCF1000F31D0146821
:100D100000202BE04FF0010C0CFA00F3B1F800C0FA
:100D20000CEA03069E4220D183004FF00F0C0CFA10
:100D300003F7BC4305FA03FC4CEA040491F803C032
:100D4000BCF1280F06D14FF0010C0CFA00FCC2F8E0
:100D500014C00AE091F803C0BCF1480F05D14FF070
:100D6000010C0CFA00FCC2F810C0401C0828D1D3BA
:100D70001460B1F800C0BCF1FF0F34DD54680020EE
:100D80002EE000F1080C4FF0010808FA0CF3B1F85E
:100D900000C00CEA03069E4221D183004FF00F0CE5
:100DA0000CFA03F7BC4305FA03FC4CEA040491F87F
:100DB00003C0BCF1280F05D100F1080C08FA0CF8AB
:100DC000C2F8148091F803C0BCF1480F07D100F1BC
:100DD000080C4FF0010808FA0CF8C2F81080401C0B
:100DE0000828CED35460BDE8F0814FF6FF71018032
:100DF000022181700421C17070470246002093686F
:100E00000B400BB1012000E00020704701468868CC
:100E100080B2704702460020D3680B400BB101201E
:100E200000E0002070470146C86880B27047016149
:100E30007047416170470AB1016100E0416170474C
:100E4000C16070474FF480320A43826181618261E0
:100E500082698269704702460020434B18684FF64A
:100E60008073184040EA021008433F4B18607047F7
:100E70003E49C8617047F0B50A46002300240021AE
:100E8000002500F00046B6F1004F02D1364EF16960
:100E900001E0354E7168C0F3034583B200F440169B
:100EA000B6F5401F08D121F070612F4E766826F00C
:100EB00070662D4F7E6012E000F48016B6F5801F3C
:100EC00006D1032606FA05F4A14341F0706106E05D
:100ED000460D360103FA06F6B14341F0706122B1C6
:100EE000460D360103FA06F6314300F00046B6F12E
:100EF000004F02D11C4EF16101E01B4E7160F0BD4C
:100F000030B500228B071C0F0F2303FA04F2164B97
:100F100008338C1053F824309343134C08348D104D
:100F200044F8253023468C1053F824308C07240FC6
:100F300000FA04F423430C4C08348D1044F8253097
:100F400030BD0A49DC3108607047000000080140EC
:100F5000000C014000100140001401400018014045
:100F6000001C014000200140000001400000204220
:100F7000DF48006840F00100DD490860084640682D
:100F8000DC490840DA49486008460068DA49084008
:100F9000D74908600846006820F4802008600846A9
:100FA000406820F4FE0048604FF41F0088607047DE
:100FB000CF49096821F48031CD4A11601146096892
:100FC00021F480211160B0F5803F03D0B0F5802F6F
:100FD0000ED106E0C649096841F48031C44A116067
:100FE00007E0C349096841F4A021C14A116000E04B
:100FF00000BF00BF704710B501460022002300204B
:101000004A11012A02D1BA4C236806E0022A02D111
:10101000B74C236A01E0B64C636A01F01F02012459
:1010200094401C400CB1012000E0002010BD38B5F8
:10103000002000900024002500BF3120FFF7DBFFD7
:1010400005460098401C00900098B0F5A06F01D0B4
:10105000002DF2D03120FFF7CEFF08B1012400E0CF
:101060000024204638BD01460020A14A106820F027
:10107000F80040EAC10010607047A049086070475E
:10108000024600209A4B586820F47C1042EA010383
:101090001843974B58607047984908667047014657
:1010A0000020934A506820F00300084350607047C6
:1010B0008F48406800F00C007047014600208C4AC1
:1010C000506820F0F000084350607047014600204F
:1010D000874A506820F4E06008435060704701463A
:1010E0000020834A506820F4605040EAC1005060FC
:1010F000704729B17E4A527A02437D4B5A7204E00E
:101100007B4A527A82437A4B5A7270477B49D83174
:101110000860704701460020754A506820F440403E
:101120000843506070470021714A20321170704AA4
:1011300082F82010012802D004280AD104E00121FD
:101140006B4A2032117005E00521694A2032117086
:1011500000E000BF00BF70476949086070476449FC
:10116000096A0143624A116270476549443908605F
:10117000704730B500210022002400235C4D6D68CB
:1011800005F00C0121B1042905D0082923D105E07F
:101190005C4D056022E05B4D05601FE0544D6D68BD
:1011A00005F47012524D6D6805F48034022505EB8C
:1011B00092421CB9544D554305600BE04C4D6D688F
:1011C00005F400351DB1504D5543056002E04D4D0D
:1011D0005543056002E04B4D056000BF00BF444D24
:1011E0006D6805F0F0010909484D6B5C0568DD404C
:1011F00045603F4D6D6805F4E061090A434D6B5C45
:101200004568DD4085603A4D6D6805F46051C90A56
:101210003E4D6B5C4568DD40C560354D6D6805F43D
:101220004041890B3A4D6B5CC568B5FBF3F5056130
:1012300030BD29B12E4A526902432D4B5A6104E058
:101240002B4A526982432A4B5A61704729B1284A76
:1012500092690243264B9A6104E0254A92698243CF
:10126000234B9A61704729B1214AD2690243204B2E
:10127000DA6104E01E4AD26982431D4BDA6170478D
:1012800029B11B4AD2680243194BDA6004E0184ABC
:10129000D2688243164BDA60704729B1144A12694A
:1012A0000243134B1A6104E0114A12698243104B46
:1012B0001A61704712494039086070470F49C86485
:1012C00070470B49C87170470948406A40F0807008
:1012D00007494862704701460020054A92680A4063
:1012E0000AB1012000E00020704701498872704770
:1012F000001002400000FFF8FFFFF6FE000042422F
:101300008004424200127A0000093D001E000020C5
:101310002E00002010B50446FB48844209D101216B
:101320008803FFF7ADFF00214FF48040FFF7A8FFCF
:1013300032E0F648844209D101214804FFF7ADFFAD
:1013400000214FF40030FFF7A8FF25E0F048844269
:1013500009D101218804FFF7A0FF00214FF480206C
:10136000FFF79BFF18E0EB48844209D10121C80434
:10137000FFF793FF00214FF40020FFF78EFF0BE0F3
:10138000E548844208D101210805FFF786FF0021C6
:101390004FF48010FFF781FF10BD2DE9F04786B0B4
:1013A00005460E460024A24600BFA1460027B0898C
:1013B00000B100BF2F462C8A4CF6FF700440F08825
:1013C00004432C82AC894EF6F3100440B088318976
:1013D0000843718908430443AC81AC8A4FF6FF404F
:1013E0000440B0890443AC8201A8FFF7C2FEC6489E
:1013F000874202D1DDF810A001E0DDF80CA0A88939
:1014000000F4004040B10AEBCA0000EB0A1031685A
:101410004900B0FBF1F807E00AEBCA0000EB0A1044
:1014200031688900B0FBF1F86420B8FBF0F00401EA
:101430002009642101FB1089A88900F4004040B113
:10144000322000EBC900B0FBF1F000F007000443CC
:1014500008E0322000EB09106421B0FBF1F000F04D
:101460000F0004432C8106B0BDE8F0874FF41651FD
:10147000016000218180C18001810C214181002116
:101480008181704710B502460020108A4FF2FF0399
:1014900018400B884C8823438C882343CC882343F3
:1014A0001843108210BD0021018041808180C180DD
:1014B000704721B1828942F40052828104E082891E
:1014C0004DF6FF731A4082817047F0B50346002441
:1014D00000260025002040F66A17B94200D100BF5F
:1014E0001846C1F3421401F01F06012707FA06F55A
:1014F000012C01D10C3004E0022C01D1103000E0AD
:1015000014301AB107682F43076002E00768AF4341
:101510000760F0BD1AB1838A0B43838202E0838A9D
:101520008B4383827047028A4FF6F0731A4002821F
:10153000028A0A430282704782894FF2FF731A407F
:10154000828182890A438281704721B1828942F077
:101550000202828104E082894FF6FD731A40828183
:101560007047028A4FF6DF731A400282028A0A43EA
:101570000282704721B1028A42F48042028204E072
:10158000028A4BF6FF731A4002827047C1F30802C9
:101590008280704701468888C0F3080070478189BF
:1015A00041F0010181817047028BD2B20283028B2C
:1015B00042EA012202837047028B02F47F420283D7
:1015C000028B0A430283704721B1828A42F02002D3
:1015D000828204E0828A4FF6DF731A40828270476B
:1015E00021B1828A42F01002828204E0828A4FF6A0
:1015F000EF731A408282704721B1828A42F008025A
:10160000828204E0828A4FF6F7731A408282704722
:1016100021B1828942F40042828103E08289C2F3CF
:101620000E028281704721B1828A42F40062828276
:1016300004E0828A4FF2FF731A4082827047828AE6
:101640004FF6FB731A408282828A0A438282704775
:1016500021B1828A42F00202828204E0828A4FF63D
:10166000FD731A408282704702460020B1F5007F68
:1016700000D100BF13880B400BB1012000E0002017
:10168000704701F40072B2F5007F00D100BFCA4379
:101690000280704770B50246002400230025002018
:1016A00040F66A16B14200D100BFC1F3421501F005
:1016B0001F03012606FA03F3012D02D19689334058
:1016C00006E0022D02D1168A334001E0968A3340AB
:1016D0000C12012606FA04F41688344013B10CB13A
:1016E000012000E0002070BD10B50022002340F66C
:1016F0006A14A14200D100BF0A1201249440A3B28F
:10170000DC43048010BD000000380140004400406C
:1017100000480040004C004000500040704700006E
:101720000FB4044910B503AA029800F063F910BC85
:101730005DF814FB1800002070B504468569006848
:10174000C10601D5302600E02026C00707D070BDB5
:10175000D4E9012130469047206A401C20626D1E6A
:10176000F6D570BD70B5044685690078C00707D10D
:1017700070BDD4E9012120209047206A401C2062DE
:101780006D1EF6D570BD00002DE9F041064600241F
:1017900010687529314616A510D0AFF300800028D7
:1017A00002DA404213A507E031688A0701D512A585
:1017B00002E0490704D511A5012401E0AFF3008040
:1017C00000210A2206F1240709E0B0FBF2FCB0FB7D
:1017D000F2F302FB1C00303078541846491C0028F4
:1017E000F3D123462A463046BDE8F04100F0A8B8C0
:1017F000000000002D0000002B0000002000000071
:101800002DE9F05F894604464FF0000ADFF824B165
:10181000FB44C0F820A02046E168884700287DD01E
:10182000252806D0D4E901219047206A401C206277
:10183000F1E700255F462046E168884720280646F4
:1018400007DB312E05D2B81910F8200C08B105437A
:10185000F1E7A80701D525F00405C4F81CA000276E
:10186000C4F818A02A2E09D0304600F023F938B366
:1018700004EB8708303EC8F8186019E059F8041BDB
:10188000204604EB87029161E1688847012F0646F4
:1018900018D1E069002820DA25F020051DE0D8F8ED
:1018A000180000EB800006EB40003038C8F8180044
:1018B0002046E1688847064600F0FCF80028EED193
:1018C000012F0AD02E2E08D12046E16888477F1CC0
:1018D0000646022F45F02005C4DBA069002803DA84
:1018E000404245F00105A061E80701D025F0100550
:1018F000A6B1A6F14100192802D8203645F40065AA
:101900004A463146204625604D46FEF74BFC60B105
:10191000012807D0ED1D25F0070000E007E000F1E9
:10192000080978E705F1040975E730467AE7206A87
:10193000BDE8F09FAE0200007047704770477047E7
:101940002DE9F0470D4699469246044600F12408D9
:101950000168880604D5E06921F01001216000E0EB
:101960000120A84201DD471B00E00027A1697A1988
:1019700002EB0900081AA0612078C00602D42046B4
:10198000FFF7DAFE002608E0D4E901211AF8060084
:101990009047206A401C761C20624E45F4DB20787C
:1019A000C0060AD52046FFF7C7FE06E0D4E90121AC
:1019B00030209047206A401C2062381EA7F10107A2
:1019C000F4DC07E0D4E9012118F805009047206A0B
:1019D000401C2062281EA5F10105F3DC2046FFF71C
:1019E000C1FE2078000602D50220BDE8F087012064
:1019F000FBE70000074B70B50D467B4400F011F883
:101A00000446284600F020F810B14FF0FF3070BDBA
:101A1000204670BDC1EFFFFF01694A1C02610878D2
:101A2000704700B58FB0CDE901310021059105491E
:101A30007944CDE9031011466846FFF7E1FE0FB087
:101A400000BD0000E5FFFFFF007B00F08000704755
:101A5000754600F02BF8AE4605006946534620F067
:101A60000700854618B020B5FFF754F8BDE82040C0
:101A70004FF000064FF000074FF000084FF0000B4A
:101A800021F00701AC46ACE8C009ACE8C009ACE8FD
:101A9000C009ACE8C0098D46704710B50446AFF3E5
:101AA00000802046BDE81040FEF78EBB004870471E
:101AB000FC00002030380A2801D2012070470020A5
:101AC0007047040000080000000000000002000150
:101AD00000001000F41A000800000020340000008C
:101AE0006C010008281B0008340000202C070000AF
:101AF0008801000800A24A04000000000000000065
:101B000001020304060708090000000000000000AD
:101B100000000000000001020304010203040607A4
:081B2000080902040608000098
:0400000508000131BD
:00000001FF
